{
  "contractName": "BookRental",
  "abi": [
    {
      "inputs": [],
      "stateMutability": "nonpayable",
      "type": "constructor"
    },
    {
      "anonymous": false,
      "inputs": [
        {
          "indexed": true,
          "internalType": "uint256",
          "name": "itemId",
          "type": "uint256"
        },
        {
          "indexed": false,
          "internalType": "string",
          "name": "title",
          "type": "string"
        },
        {
          "indexed": false,
          "internalType": "uint256",
          "name": "price",
          "type": "uint256"
        },
        {
          "indexed": false,
          "internalType": "uint256",
          "name": "deposit",
          "type": "uint256"
        }
      ],
      "name": "BookListed",
      "type": "event"
    },
    {
      "anonymous": false,
      "inputs": [
        {
          "indexed": true,
          "internalType": "uint256",
          "name": "itemId",
          "type": "uint256"
        },
        {
          "indexed": true,
          "internalType": "address",
          "name": "renter",
          "type": "address"
        }
      ],
      "name": "BookRented",
      "type": "event"
    },
    {
      "anonymous": false,
      "inputs": [
        {
          "indexed": true,
          "internalType": "uint256",
          "name": "itemId",
          "type": "uint256"
        },
        {
          "indexed": false,
          "internalType": "uint256",
          "name": "refund",
          "type": "uint256"
        }
      ],
      "name": "BookReturned",
      "type": "event"
    },
    {
      "anonymous": false,
      "inputs": [
        {
          "indexed": true,
          "internalType": "uint256",
          "name": "itemId",
          "type": "uint256"
        },
        {
          "indexed": false,
          "internalType": "string",
          "name": "title",
          "type": "string"
        }
      ],
      "name": "BookUnlisted",
      "type": "event"
    },
    {
      "anonymous": false,
      "inputs": [
        {
          "indexed": true,
          "internalType": "uint256",
          "name": "itemId",
          "type": "uint256"
        },
        {
          "indexed": false,
          "internalType": "address",
          "name": "renter",
          "type": "address"
        },
        {
          "indexed": false,
          "internalType": "uint256",
          "name": "refundAmount",
          "type": "uint256"
        }
      ],
      "name": "RefundIssued",
      "type": "event"
    },
    {
      "inputs": [
        {
          "internalType": "uint256",
          "name": "",
          "type": "uint256"
        }
      ],
      "name": "activeBookIds",
      "outputs": [
        {
          "internalType": "uint256",
          "name": "",
          "type": "uint256"
        }
      ],
      "stateMutability": "view",
      "type": "function",
      "constant": true
    },
    {
      "inputs": [
        {
          "internalType": "uint256",
          "name": "",
          "type": "uint256"
        }
      ],
      "name": "bookIdToActiveIndex",
      "outputs": [
        {
          "internalType": "uint256",
          "name": "",
          "type": "uint256"
        }
      ],
      "stateMutability": "view",
      "type": "function",
      "constant": true
    },
    {
      "inputs": [
        {
          "internalType": "uint256",
          "name": "",
          "type": "uint256"
        }
      ],
      "name": "books",
      "outputs": [
        {
          "internalType": "string",
          "name": "title",
          "type": "string"
        },
        {
          "internalType": "uint256",
          "name": "dailyPrice",
          "type": "uint256"
        },
        {
          "internalType": "uint256",
          "name": "deposit",
          "type": "uint256"
        },
        {
          "internalType": "address",
          "name": "owner",
          "type": "address"
        },
        {
          "internalType": "bool",
          "name": "isAvailable",
          "type": "bool"
        }
      ],
      "stateMutability": "view",
      "type": "function",
      "constant": true
    },
    {
      "inputs": [],
      "name": "itemCount",
      "outputs": [
        {
          "internalType": "uint256",
          "name": "",
          "type": "uint256"
        }
      ],
      "stateMutability": "view",
      "type": "function",
      "constant": true
    },
    {
      "inputs": [],
      "name": "owner",
      "outputs": [
        {
          "internalType": "address",
          "name": "",
          "type": "address"
        }
      ],
      "stateMutability": "view",
      "type": "function",
      "constant": true
    },
    {
      "inputs": [
        {
          "internalType": "address",
          "name": "",
          "type": "address"
        }
      ],
      "name": "pendingRefunds",
      "outputs": [
        {
          "internalType": "uint256",
          "name": "",
          "type": "uint256"
        }
      ],
      "stateMutability": "view",
      "type": "function",
      "constant": true
    },
    {
      "inputs": [
        {
          "internalType": "uint256",
          "name": "",
          "type": "uint256"
        }
      ],
      "name": "rentals",
      "outputs": [
        {
          "internalType": "address",
          "name": "renter",
          "type": "address"
        },
        {
          "internalType": "uint256",
          "name": "rentedAt",
          "type": "uint256"
        }
      ],
      "stateMutability": "view",
      "type": "function",
      "constant": true
    },
    {
      "inputs": [
        {
          "internalType": "string",
          "name": "_title",
          "type": "string"
        },
        {
          "internalType": "uint256",
          "name": "_dailyPrice",
          "type": "uint256"
        },
        {
          "internalType": "uint256",
          "name": "_deposit",
          "type": "uint256"
        }
      ],
      "name": "listItem",
      "outputs": [],
      "stateMutability": "nonpayable",
      "type": "function"
    },
    {
      "inputs": [
        {
          "internalType": "uint256",
          "name": "_itemId",
          "type": "uint256"
        }
      ],
      "name": "rentItem",
      "outputs": [],
      "stateMutability": "payable",
      "type": "function",
      "payable": true
    },
    {
      "inputs": [
        {
          "internalType": "uint256",
          "name": "_itemId",
          "type": "uint256"
        }
      ],
      "name": "returnItem",
      "outputs": [],
      "stateMutability": "nonpayable",
      "type": "function"
    },
    {
      "inputs": [
        {
          "internalType": "uint256",
          "name": "_itemId",
          "type": "uint256"
        }
      ],
      "name": "unlistItem",
      "outputs": [],
      "stateMutability": "nonpayable",
      "type": "function"
    },
    {
      "inputs": [],
      "name": "withdrawRefund",
      "outputs": [],
      "stateMutability": "nonpayable",
      "type": "function"
    },
    {
      "inputs": [],
      "name": "getActiveBookIds",
      "outputs": [
        {
          "internalType": "uint256[]",
          "name": "",
          "type": "uint256[]"
        }
      ],
      "stateMutability": "view",
      "type": "function",
      "constant": true
    }
  ],
  "bytecode": "0x608060405234801561000f575f80fd5b5060015f819055503360015f6101000a81548173ffffffffffffffffffffffffffffffffffffffff021916908373ffffffffffffffffffffffffffffffffffffffff1602179055506121d0806100645f395ff3fe6080604052600436106100c1575f3560e01c806383f772ee1161007e578063b613b11411610058578063b613b11414610262578063ccaa41591461029e578063d78d3852146102da578063f1766279146102f6576100c1565b806383f772ee146101bf5780638da5cb5b146101fb578063af94a1d114610225576100c1565b8063110f8874146100c5578063223ed1dd146100db57806347d84eb4146101035780635a599da81461012d57806368744046146101555780636bfb0d0114610195575b5f80fd5b3480156100d0575f80fd5b506100d961031e565b005b3480156100e6575f80fd5b5061010160048036038101906100fc91906111bb565b6104d9565b005b34801561010e575f80fd5b506101176107fd565b604051610124919061129d565b60405180910390f35b348015610138575f80fd5b50610153600480360381019061014e91906111bb565b610853565b005b348015610160575f80fd5b5061017b600480360381019061017691906111bb565b610ad7565b60405161018c9594939291906113af565b60405180910390f35b3480156101a0575f80fd5b506101a9610bbb565b6040516101b69190611407565b60405180910390f35b3480156101ca575f80fd5b506101e560048036038101906101e091906111bb565b610bc1565b6040516101f29190611407565b60405180910390f35b348015610206575f80fd5b5061020f610bd6565b60405161021c9190611420565b60405180910390f35b348015610230575f80fd5b5061024b600480360381019061024691906111bb565b610bfb565b604051610259929190611439565b60405180910390f35b34801561026d575f80fd5b506102886004803603810190610283919061148a565b610c3a565b6040516102959190611407565b60405180910390f35b3480156102a9575f80fd5b506102c460048036038101906102bf91906111bb565b610c4f565b6040516102d19190611407565b60405180910390f35b6102f460048036038101906102ef91906111bb565b610c6f565b005b348015610301575f80fd5b5061031c600480360381019061031791906115e1565b610e73565b005b6103266110c9565b5f60075f3373ffffffffffffffffffffffffffffffffffffffff1673ffffffffffffffffffffffffffffffffffffffff1681526020019081526020015f205490505f81116103a9576040517f08c379a00000000000000000000000000000000000000000000000000000000081526004016103a090611697565b60405180910390fd5b5f60075f3373ffffffffffffffffffffffffffffffffffffffff1673ffffffffffffffffffffffffffffffffffffffff1681526020019081526020015f20819055505f3373ffffffffffffffffffffffffffffffffffffffff1682604051610410906116e2565b5f6040518083038185875af1925050503d805f811461044a576040519150601f19603f3d011682016040523d82523d5f602084013e61044f565b606091505b5050905080610493576040517f08c379a000000000000000000000000000000000000000000000000000000000815260040161048a90611740565b60405180910390fd5b5f7f7a482fdeb6bc9a1376f597068a214a7a39472bb2eff1b8cad21ba04f49ddca1b33846040516104c5929190611439565b60405180910390a250506104d7611116565b565b6104e16110c9565b8060045f8281526020019081526020015f205f015f9054906101000a900473ffffffffffffffffffffffffffffffffffffffff1673ffffffffffffffffffffffffffffffffffffffff163373ffffffffffffffffffffffffffffffffffffffff1614610582576040517f08c379a0000000000000000000000000000000000000000000000000000000008152600401610579906117a8565b60405180910390fd5b5f60035f8481526020019081526020015f2090505f60045f8581526020019081526020015f2090508160030160149054906101000a900460ff16156105fc576040517f08c379a00000000000000000000000000000000000000000000000000000000081526004016105f390611810565b60405180910390fd5b5f81600101544261060d919061185b565b90505f8190505f805f86600101549050603c84116106315786600201549150610692565b61012c841161068d5786600101546001603c8661064e91906118bb565b610658919061185b565b61066291906118eb565b925082876002015411610675575f610686565b828760020154610685919061185b565b5b9150610691565b5f91505b5b866003015f9054906101000a900473ffffffffffffffffffffffffffffffffffffffff1673ffffffffffffffffffffffffffffffffffffffff166108fc8290811502906040515f60405180830381858888f193505050501580156106f8573d5f803e3d5ffd5b505f821115610755578160075f3373ffffffffffffffffffffffffffffffffffffffff1673ffffffffffffffffffffffffffffffffffffffff1681526020019081526020015f205f82825461074d919061192c565b925050819055505b60018760030160146101000a81548160ff02191690831515021790555060045f8a81526020019081526020015f205f8082015f6101000a81549073ffffffffffffffffffffffffffffffffffffffff0219169055600182015f90555050887fee4b5098d8c39dde213a36f1997bff3e0660690383e61faf875a9c3512b94286836040516107e29190611407565b60405180910390a250505050505050506107fa611116565b50565b6060600580548060200260200160405190810160405280929190818152602001828054801561084957602002820191905f5260205f20905b815481526020019060010190808311610835575b5050505050905090565b8060035f8281526020019081526020015f206003015f9054906101000a900473ffffffffffffffffffffffffffffffffffffffff1673ffffffffffffffffffffffffffffffffffffffff163373ffffffffffffffffffffffffffffffffffffffff16146108f5576040517f08c379a00000000000000000000000000000000000000000000000000000000081526004016108ec906119a9565b60405180910390fd5b5f60035f8481526020019081526020015f2090508060030160149054906101000a900460ff1661095a576040517f08c379a000000000000000000000000000000000000000000000000000000000815260040161095190611a37565b60405180910390fd5b5f8160030160146101000a81548160ff0219169083151502179055505f60065f8581526020019081526020015f205490505f600560016005805490506109a0919061185b565b815481106109b1576109b0611a55565b5b905f5260205f200154905080600583815481106109d1576109d0611a55565b5b905f5260205f2001819055508160065f8381526020019081526020015f20819055506005805480610a0557610a04611a82565b5b600190038181905f5260205f20015f9055905560065f8681526020019081526020015f205f9055847f7baae0e813d80a870b73ff31ac30d0d3604bc445ae7b9622ef805a5e2878cfbb845f01604051610a5e9190611b9f565b60405180910390a260035f8681526020019081526020015f205f8082015f610a86919061111f565b600182015f9055600282015f9055600382015f6101000a81549073ffffffffffffffffffffffffffffffffffffffff02191690556003820160146101000a81549060ff021916905550505050505050565b6003602052805f5260405f205f91509050805f018054610af690611adc565b80601f0160208091040260200160405190810160405280929190818152602001828054610b2290611adc565b8015610b6d5780601f10610b4457610100808354040283529160200191610b6d565b820191905f5260205f20905b815481529060010190602001808311610b5057829003601f168201915b505050505090806001015490806002015490806003015f9054906101000a900473ffffffffffffffffffffffffffffffffffffffff16908060030160149054906101000a900460ff16905085565b60025481565b6006602052805f5260405f205f915090505481565b60015f9054906101000a900473ffffffffffffffffffffffffffffffffffffffff1681565b6004602052805f5260405f205f91509050805f015f9054906101000a900473ffffffffffffffffffffffffffffffffffffffff16908060010154905082565b6007602052805f5260405f205f915090505481565b60058181548110610c5e575f80fd5b905f5260205f20015f915090505481565b610c776110c9565b5f60035f8381526020019081526020015f2090508060030160149054906101000a900460ff16610cdc576040517f08c379a0000000000000000000000000000000000000000000000000000000008152600401610cd390611c09565b60405180910390fd5b5f81600101548260020154610cf1919061192c565b905080341015610d36576040517f08c379a0000000000000000000000000000000000000000000000000000000008152600401610d2d90611c97565b60405180910390fd5b80471015610d79576040517f08c379a0000000000000000000000000000000000000000000000000000000008152600401610d7090611cff565b60405180910390fd5b5f8260030160146101000a81548160ff02191690831515021790555060405180604001604052803373ffffffffffffffffffffffffffffffffffffffff1681526020014281525060045f8581526020019081526020015f205f820151815f015f6101000a81548173ffffffffffffffffffffffffffffffffffffffff021916908373ffffffffffffffffffffffffffffffffffffffff160217905550602082015181600101559050503373ffffffffffffffffffffffffffffffffffffffff16837fc0661432c794dec039a29ae318625a6ae8be0372f5a5cee7dd0b50eef5f1f1af60405160405180910390a35050610e70611116565b50565b5f835111610eb6576040517f08c379a0000000000000000000000000000000000000000000000000000000008152600401610ead90611d67565b60405180910390fd5b5f8211610ef8576040517f08c379a0000000000000000000000000000000000000000000000000000000008152600401610eef90611dcf565b60405180910390fd5b5f8111610f3a576040517f08c379a0000000000000000000000000000000000000000000000000000000008152600401610f3190611e37565b60405180910390fd5b6040518060a001604052808481526020018381526020018281526020013373ffffffffffffffffffffffffffffffffffffffff1681526020016001151581525060035f60025481526020019081526020015f205f820151815f019081610fa09190611fe0565b5060208201518160010155604082015181600201556060820151816003015f6101000a81548173ffffffffffffffffffffffffffffffffffffffff021916908373ffffffffffffffffffffffffffffffffffffffff16021790555060808201518160030160146101000a81548160ff0219169083151502179055509050506005600254908060018154018082558091505060019003905f5260205f20015f90919091909150556001600580549050611058919061185b565b60065f60025481526020019081526020015f20819055506002547f407d439efefff58d118654bf6707a4ef5299950f2994f51aeb9698a8683b44df8484846040516110a5939291906120af565b60405180910390a260025f8154809291906110bf906120eb565b9190505550505050565b60025f540361110d576040517f08c379a00000000000000000000000000000000000000000000000000000000081526004016111049061217c565b60405180910390fd5b60025f81905550565b60015f81905550565b50805461112b90611adc565b5f825580601f1061113c5750611159565b601f0160209004905f5260205f2090810190611158919061115c565b5b50565b5b80821115611173575f815f90555060010161115d565b5090565b5f604051905090565b5f80fd5b5f80fd5b5f819050919050565b61119a81611188565b81146111a4575f80fd5b50565b5f813590506111b581611191565b92915050565b5f602082840312156111d0576111cf611180565b5b5f6111dd848285016111a7565b91505092915050565b5f81519050919050565b5f82825260208201905092915050565b5f819050602082019050919050565b61121881611188565b82525050565b5f611229838361120f565b60208301905092915050565b5f602082019050919050565b5f61124b826111e6565b61125581856111f0565b935061126083611200565b805f5b83811015611290578151611277888261121e565b975061128283611235565b925050600181019050611263565b5085935050505092915050565b5f6020820190508181035f8301526112b58184611241565b905092915050565b5f81519050919050565b5f82825260208201905092915050565b5f5b838110156112f45780820151818401526020810190506112d9565b5f8484015250505050565b5f601f19601f8301169050919050565b5f611319826112bd565b61132381856112c7565b93506113338185602086016112d7565b61133c816112ff565b840191505092915050565b61135081611188565b82525050565b5f73ffffffffffffffffffffffffffffffffffffffff82169050919050565b5f61137f82611356565b9050919050565b61138f81611375565b82525050565b5f8115159050919050565b6113a981611395565b82525050565b5f60a0820190508181035f8301526113c7818861130f565b90506113d66020830187611347565b6113e36040830186611347565b6113f06060830185611386565b6113fd60808301846113a0565b9695505050505050565b5f60208201905061141a5f830184611347565b92915050565b5f6020820190506114335f830184611386565b92915050565b5f60408201905061144c5f830185611386565b6114596020830184611347565b9392505050565b61146981611375565b8114611473575f80fd5b50565b5f8135905061148481611460565b92915050565b5f6020828403121561149f5761149e611180565b5b5f6114ac84828501611476565b91505092915050565b5f80fd5b5f80fd5b7f4e487b71000000000000000000000000000000000000000000000000000000005f52604160045260245ffd5b6114f3826112ff565b810181811067ffffffffffffffff82111715611512576115116114bd565b5b80604052505050565b5f611524611177565b905061153082826114ea565b919050565b5f67ffffffffffffffff82111561154f5761154e6114bd565b5b611558826112ff565b9050602081019050919050565b828183375f83830152505050565b5f61158561158084611535565b61151b565b9050828152602081018484840111156115a1576115a06114b9565b5b6115ac848285611565565b509392505050565b5f82601f8301126115c8576115c76114b5565b5b81356115d8848260208601611573565b91505092915050565b5f805f606084860312156115f8576115f7611180565b5b5f84013567ffffffffffffffff81111561161557611614611184565b5b611621868287016115b4565b9350506020611632868287016111a7565b9250506040611643868287016111a7565b9150509250925092565b7f4e6f20726566756e6420617661696c61626c65000000000000000000000000005f82015250565b5f6116816013836112c7565b915061168c8261164d565b602082019050919050565b5f6020820190508181035f8301526116ae81611675565b9050919050565b5f81905092915050565b50565b5f6116cd5f836116b5565b91506116d8826116bf565b5f82019050919050565b5f6116ec826116c2565b9150819050919050565b7f526566756e64207472616e73666572206661696c6564000000000000000000005f82015250565b5f61172a6016836112c7565b9150611735826116f6565b602082019050919050565b5f6020820190508181035f8301526117578161171e565b9050919050565b7f4e6f742072656e746572000000000000000000000000000000000000000000005f82015250565b5f611792600a836112c7565b915061179d8261175e565b602082019050919050565b5f6020820190508181035f8301526117bf81611786565b9050919050565b7f426f6f6b206973206e6f742072656e74656400000000000000000000000000005f82015250565b5f6117fa6012836112c7565b9150611805826117c6565b602082019050919050565b5f6020820190508181035f830152611827816117ee565b9050919050565b7f4e487b71000000000000000000000000000000000000000000000000000000005f52601160045260245ffd5b5f61186582611188565b915061187083611188565b92508282039050818111156118885761188761182e565b5b92915050565b7f4e487b71000000000000000000000000000000000000000000000000000000005f52601260045260245ffd5b5f6118c582611188565b91506118d083611188565b9250826118e0576118df61188e565b5b828204905092915050565b5f6118f582611188565b915061190083611188565b925082820261190e81611188565b915082820484148315176119255761192461182e565b5b5092915050565b5f61193682611188565b915061194183611188565b92508282019050808211156119595761195861182e565b5b92915050565b7f4e6f7420626f6f6b206f776e65720000000000000000000000000000000000005f82015250565b5f611993600e836112c7565b915061199e8261195f565b602082019050919050565b5f6020820190508181035f8301526119c081611987565b9050919050565b7f426f6f6b2069732063757272656e746c792072656e74656420616e642063616e5f8201527f6e6f7420626520756e6c69737465640000000000000000000000000000000000602082015250565b5f611a21602f836112c7565b9150611a2c826119c7565b604082019050919050565b5f6020820190508181035f830152611a4e81611a15565b9050919050565b7f4e487b71000000000000000000000000000000000000000000000000000000005f52603260045260245ffd5b7f4e487b71000000000000000000000000000000000000000000000000000000005f52603160045260245ffd5b7f4e487b71000000000000000000000000000000000000000000000000000000005f52602260045260245ffd5b5f6002820490506001821680611af357607f821691505b602082108103611b0657611b05611aaf565b5b50919050565b5f819050815f5260205f209050919050565b5f8154611b2a81611adc565b611b3481866112c7565b9450600182165f8114611b4e5760018114611b6457611b96565b60ff198316865281151560200286019350611b96565b611b6d85611b0c565b5f5b83811015611b8e57815481890152600182019150602081019050611b6f565b808801955050505b50505092915050565b5f6020820190508181035f830152611bb78184611b1e565b905092915050565b7f426f6f6b206973206e6f7420617661696c61626c6500000000000000000000005f82015250565b5f611bf36015836112c7565b9150611bfe82611bbf565b602082019050919050565b5f6020820190508181035f830152611c2081611be7565b9050919050565b7f496e73756666696369656e742045544820666f722072656e74696e67207468655f8201527f20626f6f6b000000000000000000000000000000000000000000000000000000602082015250565b5f611c816025836112c7565b9150611c8c82611c27565b604082019050919050565b5f6020820190508181035f830152611cae81611c75565b9050919050565b7f436f6e74726163742062616c616e636520697320696e73756666696369656e745f82015250565b5f611ce96020836112c7565b9150611cf482611cb5565b602082019050919050565b5f6020820190508181035f830152611d1681611cdd565b9050919050565b7f5469746c652063616e6e6f7420626520656d70747900000000000000000000005f82015250565b5f611d516015836112c7565b9150611d5c82611d1d565b602082019050919050565b5f6020820190508181035f830152611d7e81611d45565b9050919050565b7f5072696365206d7573742062652067726561746572207468616e2030000000005f82015250565b5f611db9601c836112c7565b9150611dc482611d85565b602082019050919050565b5f6020820190508181035f830152611de681611dad565b9050919050565b7f4465706f736974206d7573742062652067726561746572207468616e203000005f82015250565b5f611e21601e836112c7565b9150611e2c82611ded565b602082019050919050565b5f6020820190508181035f830152611e4e81611e15565b9050919050565b5f6020601f8301049050919050565b5f82821b905092915050565b5f60088302611e9f7fffffffffffffffffffffffffffffffffffffffffffffffffffffffffffffffff82611e64565b611ea98683611e64565b95508019841693508086168417925050509392505050565b5f819050919050565b5f611ee4611edf611eda84611188565b611ec1565b611188565b9050919050565b5f819050919050565b611efd83611eca565b611f11611f0982611eeb565b848454611e70565b825550505050565b5f90565b611f25611f19565b611f30818484611ef4565b505050565b5b81811015611f5357611f485f82611f1d565b600181019050611f36565b5050565b601f821115611f9857611f6981611b0c565b611f7284611e55565b81016020851015611f81578190505b611f95611f8d85611e55565b830182611f35565b50505b505050565b5f82821c905092915050565b5f611fb85f1984600802611f9d565b1980831691505092915050565b5f611fd08383611fa9565b9150826002028217905092915050565b611fe9826112bd565b67ffffffffffffffff811115612002576120016114bd565b5b61200c8254611adc565b612017828285611f57565b5f60209050601f831160018114612048575f8415612036578287015190505b6120408582611fc5565b8655506120a7565b601f19841661205686611b0c565b5f5b8281101561207d57848901518255600182019150602085019450602081019050612058565b8683101561209a5784890151612096601f891682611fa9565b8355505b6001600288020188555050505b505050505050565b5f6060820190508181035f8301526120c7818661130f565b90506120d66020830185611347565b6120e36040830184611347565b949350505050565b5f6120f582611188565b91507fffffffffffffffffffffffffffffffffffffffffffffffffffffffffffffffff82036121275761212661182e565b5b600182019050919050565b7f5265656e7472616e637947756172643a207265656e7472616e742063616c6c005f82015250565b5f612166601f836112c7565b915061217182612132565b602082019050919050565b5f6020820190508181035f8301526121938161215a565b905091905056fea2646970667358221220d4909dc78f3e05a5d1aab8cc155f5caabdf57e1c6137b8f8406237512529959264736f6c63430008140033",
  "immutableReferences": {},
  "source": "// SPDX-License-Identifier: MIT\npragma solidity ^0.8.20;\n\nimport \"@openzeppelin/contracts/security/ReentrancyGuard.sol\";\n\ncontract BookRental is ReentrancyGuard {\n    address public owner;\n    uint256 public itemCount;\n\n    constructor() {\n        owner = msg.sender;\n    }\n\n    struct Book {\n        string title;\n        uint256 dailyPrice;\n        uint256 deposit;\n        address owner;\n        bool isAvailable;\n    }\n\n    struct RentalInfo {\n        address renter;\n        uint256 rentedAt;\n    }\n\n    mapping(uint256 => Book) public books;\n    mapping(uint256 => RentalInfo) public rentals;\n\n    // Active books tracking\n    uint[] public activeBookIds;\n    mapping(uint => uint) public bookIdToActiveIndex;\n\n    event BookListed(uint256 indexed itemId, string title, uint256 price, uint256 deposit);\n    event BookRented(uint256 indexed itemId, address indexed renter);\n    event BookReturned(uint256 indexed itemId, uint256 refund);\n    event BookUnlisted(uint256 indexed itemId, string title);\n    event RefundIssued(uint256 indexed itemId, address renter, uint256 refundAmount);\n\n    modifier onlyBookOwner(uint256 _itemId) {\n        require(msg.sender == books[_itemId].owner, \"Not book owner\");\n        _;\n    }\n\n    modifier onlyRenter(uint256 _itemId) {\n        require(msg.sender == rentals[_itemId].renter, \"Not renter\");\n        _;\n    }\n\n    function listItem(string memory _title, uint256 _dailyPrice, uint256 _deposit) public {\n        require(bytes(_title).length > 0, \"Title cannot be empty\");\n        require(_dailyPrice > 0, \"Price must be greater than 0\");\n        require(_deposit > 0, \"Deposit must be greater than 0\");\n\n        books[itemCount] = Book({\n            title: _title,\n            dailyPrice: _dailyPrice,\n            deposit: _deposit,\n            owner: msg.sender,\n            isAvailable: true\n        });\n\n        activeBookIds.push(itemCount);\n        bookIdToActiveIndex[itemCount] = activeBookIds.length - 1;\n\n        emit BookListed(itemCount, _title, _dailyPrice, _deposit);\n        itemCount++;\n    }\n\n    function rentItem(uint256 _itemId) public payable nonReentrant {\n        Book storage book = books[_itemId];\n        require(book.isAvailable, \"Book is not available\");\n\n        uint256 totalCost = book.deposit + book.dailyPrice;\n        require(msg.value >= totalCost, \"Insufficient ETH for renting the book\");\n        require(address(this).balance >= totalCost, \"Contract balance is insufficient\");\n\n        book.isAvailable = false;\n        rentals[_itemId] = RentalInfo({\n            renter: msg.sender,\n            rentedAt: block.timestamp\n        });\n\n        emit BookRented(_itemId, msg.sender);\n    }\n\n    mapping(address => uint256) public pendingRefunds;\n\n    function returnItem(uint256 _itemId) public nonReentrant onlyRenter(_itemId) {\n        Book storage book = books[_itemId];\n        RentalInfo storage rent = rentals[_itemId];\n\n        require(!book.isAvailable, \"Book is not rented\");\n\n        uint256 timePassed = block.timestamp - rent.rentedAt;\n        uint256 secondsElapsed = timePassed;\n\n        uint256 penalty = 0;\n        uint256 refund = 0;\n        uint256 rentalFee = book.dailyPrice;\n\n        if (secondsElapsed <= 60) {\n            refund = book.deposit;\n        } else if (secondsElapsed <= 5 * 60) {\n            penalty = (secondsElapsed / 60 - 1) * book.dailyPrice;\n            refund = book.deposit > penalty ? book.deposit - penalty : 0;\n        } else {\n            refund = 0;\n        }\n\n        payable(book.owner).transfer(rentalFee);\n\n        if (refund > 0) {\n            pendingRefunds[msg.sender] += refund;\n        }\n\n        book.isAvailable = true;\n        delete rentals[_itemId];\n\n        emit BookReturned(_itemId, refund);\n    }\n\n    function unlistItem(uint256 _itemId) public onlyBookOwner(_itemId) {\n        Book storage book = books[_itemId];\n        require(book.isAvailable, \"Book is currently rented and cannot be unlisted\");\n\n        book.isAvailable = false;\n\n        uint indexToRemove = bookIdToActiveIndex[_itemId];\n        uint lastId = activeBookIds[activeBookIds.length - 1];\n\n        activeBookIds[indexToRemove] = lastId;\n        bookIdToActiveIndex[lastId] = indexToRemove;\n\n        activeBookIds.pop();\n        delete bookIdToActiveIndex[_itemId];\n\n        emit BookUnlisted(_itemId, book.title);\n\n        delete books[_itemId];\n    }\n\n    function withdrawRefund() public nonReentrant {\n        uint256 refundAmount = pendingRefunds[msg.sender];\n        require(refundAmount > 0, \"No refund available\");\n\n        pendingRefunds[msg.sender] = 0;\n        (bool success, ) = msg.sender.call{value: refundAmount}(\"\");\n        require(success, \"Refund transfer failed\");\n\n        emit RefundIssued(0, msg.sender, refundAmount);\n    }\n\n    function getActiveBookIds() public view returns (uint[] memory) {\n        return activeBookIds;\n    }\n}",
  "sourcePath": "C:\\Users\\suhia\\Downloads\\Cryptohives-main\\contracts\\BookRental.sol",
  "compiler": {
    "name": "solc",
    "version": "0.8.20+commit.a1b79de6.Emscripten.clang"
  },
  "schemaVersion": "3.4.16",
  "updatedAt": "2025-06-28T13:56:25.112Z",
  "networkType": "ethereum",
  "devdoc": {
    "kind": "dev",
    "methods": {},
    "version": 1
  },
  "userdoc": {
    "kind": "user",
    "methods": {},
    "version": 1
  }
}