{
  "contractName": "BookRental",
  "abi": [
    {
      "inputs": [],
      "stateMutability": "nonpayable",
      "type": "constructor"
    },
    {
      "anonymous": false,
      "inputs": [
        {
          "indexed": true,
          "internalType": "uint256",
          "name": "itemId",
          "type": "uint256"
        },
        {
          "indexed": false,
          "internalType": "string",
          "name": "title",
          "type": "string"
        },
        {
          "indexed": false,
          "internalType": "uint256",
          "name": "price",
          "type": "uint256"
        },
        {
          "indexed": false,
          "internalType": "uint256",
          "name": "deposit",
          "type": "uint256"
        }
      ],
      "name": "BookListed",
      "type": "event"
    },
    {
      "anonymous": false,
      "inputs": [
        {
          "indexed": true,
          "internalType": "uint256",
          "name": "itemId",
          "type": "uint256"
        },
        {
          "indexed": true,
          "internalType": "address",
          "name": "renter",
          "type": "address"
        }
      ],
      "name": "BookRented",
      "type": "event"
    },
    {
      "anonymous": false,
      "inputs": [
        {
          "indexed": true,
          "internalType": "uint256",
          "name": "itemId",
          "type": "uint256"
        },
        {
          "indexed": false,
          "internalType": "uint256",
          "name": "refund",
          "type": "uint256"
        }
      ],
      "name": "BookReturned",
      "type": "event"
    },
    {
      "anonymous": false,
      "inputs": [
        {
          "indexed": true,
          "internalType": "uint256",
          "name": "itemId",
          "type": "uint256"
        },
        {
          "indexed": false,
          "internalType": "string",
          "name": "title",
          "type": "string"
        }
      ],
      "name": "BookUnlisted",
      "type": "event"
    },
    {
      "anonymous": false,
      "inputs": [
        {
          "indexed": true,
          "internalType": "uint256",
          "name": "itemId",
          "type": "uint256"
        },
        {
          "indexed": false,
          "internalType": "address",
          "name": "renter",
          "type": "address"
        },
        {
          "indexed": false,
          "internalType": "uint256",
          "name": "refundAmount",
          "type": "uint256"
        }
      ],
      "name": "RefundIssued",
      "type": "event"
    },
    {
      "inputs": [
        {
          "internalType": "uint256",
          "name": "",
          "type": "uint256"
        }
      ],
      "name": "activeBookIds",
      "outputs": [
        {
          "internalType": "uint256",
          "name": "",
          "type": "uint256"
        }
      ],
      "stateMutability": "view",
      "type": "function",
      "constant": true
    },
    {
      "inputs": [
        {
          "internalType": "uint256",
          "name": "",
          "type": "uint256"
        }
      ],
      "name": "bookIdToActiveIndex",
      "outputs": [
        {
          "internalType": "uint256",
          "name": "",
          "type": "uint256"
        }
      ],
      "stateMutability": "view",
      "type": "function",
      "constant": true
    },
    {
      "inputs": [
        {
          "internalType": "address",
          "name": "",
          "type": "address"
        }
      ],
      "name": "pendingRefunds",
      "outputs": [
        {
          "internalType": "uint256",
          "name": "",
          "type": "uint256"
        }
      ],
      "stateMutability": "view",
      "type": "function",
      "constant": true
    },
    {
      "inputs": [],
      "name": "withdrawRefund",
      "outputs": [],
      "stateMutability": "nonpayable",
      "type": "function"
    },
    {
      "inputs": [
        {
          "internalType": "uint256",
          "name": "",
          "type": "uint256"
        }
      ],
      "name": "books",
      "outputs": [
        {
          "internalType": "string",
          "name": "title",
          "type": "string"
        },
        {
          "internalType": "uint256",
          "name": "dailyPrice",
          "type": "uint256"
        },
        {
          "internalType": "uint256",
          "name": "deposit",
          "type": "uint256"
        },
        {
          "internalType": "address",
          "name": "owner",
          "type": "address"
        },
        {
          "internalType": "bool",
          "name": "isAvailable",
          "type": "bool"
        }
      ],
      "stateMutability": "view",
      "type": "function",
      "constant": true
    },
    {
      "inputs": [],
      "name": "itemCount",
      "outputs": [
        {
          "internalType": "uint256",
          "name": "",
          "type": "uint256"
        }
      ],
      "stateMutability": "view",
      "type": "function",
      "constant": true
    },
    {
      "inputs": [],
      "name": "owner",
      "outputs": [
        {
          "internalType": "address",
          "name": "",
          "type": "address"
        }
      ],
      "stateMutability": "view",
      "type": "function",
      "constant": true
    },
    {
      "inputs": [
        {
          "internalType": "uint256",
          "name": "",
          "type": "uint256"
        }
      ],
      "name": "rentals",
      "outputs": [
        {
          "internalType": "address",
          "name": "renter",
          "type": "address"
        },
        {
          "internalType": "uint256",
          "name": "rentedAt",
          "type": "uint256"
        }
      ],
      "stateMutability": "view",
      "type": "function",
      "constant": true
    },
    {
      "inputs": [
        {
          "internalType": "string",
          "name": "_title",
          "type": "string"
        },
        {
          "internalType": "uint256",
          "name": "_dailyPrice",
          "type": "uint256"
        },
        {
          "internalType": "uint256",
          "name": "_deposit",
          "type": "uint256"
        }
      ],
      "name": "listItem",
      "outputs": [],
      "stateMutability": "nonpayable",
      "type": "function"
    },
    {
      "inputs": [
        {
          "internalType": "uint256",
          "name": "_itemId",
          "type": "uint256"
        }
      ],
      "name": "rentItem",
      "outputs": [],
      "stateMutability": "payable",
      "type": "function",
      "payable": true
    },
    {
      "inputs": [
        {
          "internalType": "uint256",
          "name": "_itemId",
          "type": "uint256"
        }
      ],
      "name": "returnItem",
      "outputs": [],
      "stateMutability": "nonpayable",
      "type": "function"
    },
    {
      "inputs": [
        {
          "internalType": "uint256",
          "name": "_itemId",
          "type": "uint256"
        }
      ],
      "name": "unlistItem",
      "outputs": [],
      "stateMutability": "nonpayable",
      "type": "function"
    },
    {
      "inputs": [],
      "name": "getBookCount",
      "outputs": [
        {
          "internalType": "uint256",
          "name": "",
          "type": "uint256"
        }
      ],
      "stateMutability": "view",
      "type": "function",
      "constant": true
    },
    {
      "inputs": [
        {
          "internalType": "uint256",
          "name": "_itemId",
          "type": "uint256"
        }
      ],
      "name": "getBookDetails",
      "outputs": [
        {
          "internalType": "string",
          "name": "",
          "type": "string"
        },
        {
          "internalType": "uint256",
          "name": "",
          "type": "uint256"
        },
        {
          "internalType": "uint256",
          "name": "",
          "type": "uint256"
        },
        {
          "internalType": "address",
          "name": "",
          "type": "address"
        },
        {
          "internalType": "bool",
          "name": "",
          "type": "bool"
        }
      ],
      "stateMutability": "view",
      "type": "function",
      "constant": true
    },
    {
      "inputs": [],
      "name": "getActiveBookIds",
      "outputs": [
        {
          "internalType": "uint256[]",
          "name": "",
          "type": "uint256[]"
        }
      ],
      "stateMutability": "view",
      "type": "function",
      "constant": true
    }
  ],
  "bytecode": "0x608060405234801561000f575f80fd5b5060015f819055503360015f6101000a81548173ffffffffffffffffffffffffffffffffffffffff021916908373ffffffffffffffffffffffffffffffffffffffff160217905550612226806100645f395ff3fe6080604052600436106100c1575f3560e01c806383f772ee1161007e578063ccaa415911610058578063ccaa41591461028c578063d73e0c89146102c8578063d78d3852146102f2578063f17662791461030e576100c1565b806383f772ee146101e95780638da5cb5b14610225578063af94a1d11461024f576100c1565b8063223ed1dd146100c557806347d84eb4146100ed5780635a599da814610117578063687440461461013f5780636bfb0d011461017f57806374ff4818146101a9575b5f80fd5b3480156100d0575f80fd5b506100eb60048036038101906100e69190611280565b610336565b005b3480156100f8575f80fd5b50610101610743565b60405161010e9190611362565b60405180910390f35b348015610122575f80fd5b5061013d60048036038101906101389190611280565b610799565b005b34801561014a575f80fd5b5061016560048036038101906101609190611280565b610a44565b604051610176959493929190611474565b60405180910390f35b34801561018a575f80fd5b50610193610b28565b6040516101a091906114cc565b60405180910390f35b3480156101b4575f80fd5b506101cf60048036038101906101ca9190611280565b610b2e565b6040516101e0959493929190611474565b60405180910390f35b3480156101f4575f80fd5b5061020f600480360381019061020a9190611280565b610c92565b60405161021c91906114cc565b60405180910390f35b348015610230575f80fd5b50610239610ca7565b60405161024691906114e5565b60405180910390f35b34801561025a575f80fd5b5061027560048036038101906102709190611280565b610ccc565b6040516102839291906114fe565b60405180910390f35b348015610297575f80fd5b506102b260048036038101906102ad9190611280565b610d0b565b6040516102bf91906114cc565b60405180910390f35b3480156102d3575f80fd5b506102dc610d2b565b6040516102e991906114cc565b60405180910390f35b61030c60048036038101906103079190611280565b610d34565b005b348015610319575f80fd5b50610334600480360381019061032f9190611651565b610f38565b005b61033e61118e565b8060045f8281526020019081526020015f205f015f9054906101000a900473ffffffffffffffffffffffffffffffffffffffff1673ffffffffffffffffffffffffffffffffffffffff163373ffffffffffffffffffffffffffffffffffffffff16146103df576040517f08c379a00000000000000000000000000000000000000000000000000000000081526004016103d690611707565b60405180910390fd5b5f60035f8481526020019081526020015f2090505f60045f8581526020019081526020015f2090508160030160149054906101000a900460ff1615610459576040517f08c379a00000000000000000000000000000000000000000000000000000000081526004016104509061176f565b60405180910390fd5b5f81600101544261046a91906117ba565b90505f8190505f805f86600101549050603c841161048e57866002015491506104e7565b61012c84116104e65786600101546001603c866104ab919061181a565b6104b591906117ba565b6104bf919061184a565b9250828760020154116104d2575f6104e3565b8287600201546104e291906117ba565b5b91505b5b80826104f3919061188b565b471015610535576040517f08c379a000000000000000000000000000000000000000000000000000000000815260040161052c90611908565b60405180910390fd5b866003015f9054906101000a900473ffffffffffffffffffffffffffffffffffffffff1673ffffffffffffffffffffffffffffffffffffffff166108fc8290811502906040515f60405180830381858888f1935050505015801561059b573d5f803e3d5ffd5b505f82111561069b575f865f015f9054906101000a900473ffffffffffffffffffffffffffffffffffffffff1673ffffffffffffffffffffffffffffffffffffffff166108fc8490811502906040515f60405180830381858888f1935050505090508061063d576040517f08c379a000000000000000000000000000000000000000000000000000000000815260040161063490611970565b60405180910390fd5b897f7a482fdeb6bc9a1376f597068a214a7a39472bb2eff1b8cad21ba04f49ddca1b885f015f9054906101000a900473ffffffffffffffffffffffffffffffffffffffff16856040516106919291906114fe565b60405180910390a2505b60018760030160146101000a81548160ff02191690831515021790555060045f8a81526020019081526020015f205f8082015f6101000a81549073ffffffffffffffffffffffffffffffffffffffff0219169055600182015f90555050887fee4b5098d8c39dde213a36f1997bff3e0660690383e61faf875a9c3512b942868360405161072891906114cc565b60405180910390a250505050505050506107406111db565b50565b6060600580548060200260200160405190810160405280929190818152602001828054801561078f57602002820191905f5260205f20905b81548152602001906001019080831161077b575b5050505050905090565b8060035f8281526020019081526020015f206003015f9054906101000a900473ffffffffffffffffffffffffffffffffffffffff1673ffffffffffffffffffffffffffffffffffffffff163373ffffffffffffffffffffffffffffffffffffffff161461083b576040517f08c379a0000000000000000000000000000000000000000000000000000000008152600401610832906119d8565b60405180910390fd5b5f60035f8481526020019081526020015f2090508060030160149054906101000a900460ff166108a0576040517f08c379a000000000000000000000000000000000000000000000000000000000815260040161089790611a66565b60405180910390fd5b5f60035f8581526020019081526020015f2060030160146101000a81548160ff0219169083151502179055505f60065f8581526020019081526020015f205490505f600560016005805490506108f691906117ba565b8154811061090757610906611a84565b5b905f5260205f2001549050806005838154811061092757610926611a84565b5b905f5260205f2001819055508160065f8381526020019081526020015f2081905550600580548061095b5761095a611ab1565b5b600190038181905f5260205f20015f9055905560065f8681526020019081526020015f205f9055847f7baae0e813d80a870b73ff31ac30d0d3604bc445ae7b9622ef805a5e2878cfbb845f016040516109b49190611bce565b60405180910390a260035f8681526020019081526020015f205f8082015f6109dc91906111e4565b600182015f9055600282015f9055600382015f6101000a81549073ffffffffffffffffffffffffffffffffffffffff02191690556003820160146101000a81549060ff0219169055505060025f815480929190610a3890611bee565b91905055505050505050565b6003602052805f5260405f205f91509050805f018054610a6390611b0b565b80601f0160208091040260200160405190810160405280929190818152602001828054610a8f90611b0b565b8015610ada5780601f10610ab157610100808354040283529160200191610ada565b820191905f5260205f20905b815481529060010190602001808311610abd57829003601f168201915b505050505090806001015490806002015490806003015f9054906101000a900473ffffffffffffffffffffffffffffffffffffffff16908060030160149054906101000a900460ff16905085565b60025481565b60605f805f805f60035f8881526020019081526020015f206040518060a00160405290815f82018054610b6090611b0b565b80601f0160208091040260200160405190810160405280929190818152602001828054610b8c90611b0b565b8015610bd75780601f10610bae57610100808354040283529160200191610bd7565b820191905f5260205f20905b815481529060010190602001808311610bba57829003601f168201915b505050505081526020016001820154815260200160028201548152602001600382015f9054906101000a900473ffffffffffffffffffffffffffffffffffffffff1673ffffffffffffffffffffffffffffffffffffffff1673ffffffffffffffffffffffffffffffffffffffff1681526020016003820160149054906101000a900460ff1615151515815250509050805f01518160200151826040015183606001518460800151955095509550955095505091939590929450565b6006602052805f5260405f205f915090505481565b60015f9054906101000a900473ffffffffffffffffffffffffffffffffffffffff1681565b6004602052805f5260405f205f91509050805f015f9054906101000a900473ffffffffffffffffffffffffffffffffffffffff16908060010154905082565b60058181548110610d1a575f80fd5b905f5260205f20015f915090505481565b5f600254905090565b610d3c61118e565b5f60035f8381526020019081526020015f2090508060030160149054906101000a900460ff16610da1576040517f08c379a0000000000000000000000000000000000000000000000000000000008152600401610d9890611c5f565b60405180910390fd5b5f81600101548260020154610db6919061188b565b905080341015610dfb576040517f08c379a0000000000000000000000000000000000000000000000000000000008152600401610df290611ced565b60405180910390fd5b80471015610e3e576040517f08c379a0000000000000000000000000000000000000000000000000000000008152600401610e3590611d55565b60405180910390fd5b5f8260030160146101000a81548160ff02191690831515021790555060405180604001604052803373ffffffffffffffffffffffffffffffffffffffff1681526020014281525060045f8581526020019081526020015f205f820151815f015f6101000a81548173ffffffffffffffffffffffffffffffffffffffff021916908373ffffffffffffffffffffffffffffffffffffffff160217905550602082015181600101559050503373ffffffffffffffffffffffffffffffffffffffff16837fc0661432c794dec039a29ae318625a6ae8be0372f5a5cee7dd0b50eef5f1f1af60405160405180910390a35050610f356111db565b50565b5f835111610f7b576040517f08c379a0000000000000000000000000000000000000000000000000000000008152600401610f7290611dbd565b60405180910390fd5b5f8211610fbd576040517f08c379a0000000000000000000000000000000000000000000000000000000008152600401610fb490611e25565b60405180910390fd5b5f8111610fff576040517f08c379a0000000000000000000000000000000000000000000000000000000008152600401610ff690611e8d565b60405180910390fd5b6040518060a001604052808481526020018381526020018281526020013373ffffffffffffffffffffffffffffffffffffffff1681526020016001151581525060035f60025481526020019081526020015f205f820151815f0190816110659190612036565b5060208201518160010155604082015181600201556060820151816003015f6101000a81548173ffffffffffffffffffffffffffffffffffffffff021916908373ffffffffffffffffffffffffffffffffffffffff16021790555060808201518160030160146101000a81548160ff0219169083151502179055509050506005600254908060018154018082558091505060019003905f5260205f20015f9091909190915055600160058054905061111d91906117ba565b60065f60025481526020019081526020015f20819055506002547f407d439efefff58d118654bf6707a4ef5299950f2994f51aeb9698a8683b44df84848460405161116a93929190612105565b60405180910390a260025f81548092919061118490612141565b9190505550505050565b60025f54036111d2576040517f08c379a00000000000000000000000000000000000000000000000000000000081526004016111c9906121d2565b60405180910390fd5b60025f81905550565b60015f81905550565b5080546111f090611b0b565b5f825580601f10611201575061121e565b601f0160209004905f5260205f209081019061121d9190611221565b5b50565b5b80821115611238575f815f905550600101611222565b5090565b5f604051905090565b5f80fd5b5f80fd5b5f819050919050565b61125f8161124d565b8114611269575f80fd5b50565b5f8135905061127a81611256565b92915050565b5f6020828403121561129557611294611245565b5b5f6112a28482850161126c565b91505092915050565b5f81519050919050565b5f82825260208201905092915050565b5f819050602082019050919050565b6112dd8161124d565b82525050565b5f6112ee83836112d4565b60208301905092915050565b5f602082019050919050565b5f611310826112ab565b61131a81856112b5565b9350611325836112c5565b805f5b8381101561135557815161133c88826112e3565b9750611347836112fa565b925050600181019050611328565b5085935050505092915050565b5f6020820190508181035f83015261137a8184611306565b905092915050565b5f81519050919050565b5f82825260208201905092915050565b5f5b838110156113b957808201518184015260208101905061139e565b5f8484015250505050565b5f601f19601f8301169050919050565b5f6113de82611382565b6113e8818561138c565b93506113f881856020860161139c565b611401816113c4565b840191505092915050565b6114158161124d565b82525050565b5f73ffffffffffffffffffffffffffffffffffffffff82169050919050565b5f6114448261141b565b9050919050565b6114548161143a565b82525050565b5f8115159050919050565b61146e8161145a565b82525050565b5f60a0820190508181035f83015261148c81886113d4565b905061149b602083018761140c565b6114a8604083018661140c565b6114b5606083018561144b565b6114c26080830184611465565b9695505050505050565b5f6020820190506114df5f83018461140c565b92915050565b5f6020820190506114f85f83018461144b565b92915050565b5f6040820190506115115f83018561144b565b61151e602083018461140c565b9392505050565b5f80fd5b5f80fd5b7f4e487b71000000000000000000000000000000000000000000000000000000005f52604160045260245ffd5b611563826113c4565b810181811067ffffffffffffffff821117156115825761158161152d565b5b80604052505050565b5f61159461123c565b90506115a0828261155a565b919050565b5f67ffffffffffffffff8211156115bf576115be61152d565b5b6115c8826113c4565b9050602081019050919050565b828183375f83830152505050565b5f6115f56115f0846115a5565b61158b565b90508281526020810184848401111561161157611610611529565b5b61161c8482856115d5565b509392505050565b5f82601f83011261163857611637611525565b5b81356116488482602086016115e3565b91505092915050565b5f805f6060848603121561166857611667611245565b5b5f84013567ffffffffffffffff81111561168557611684611249565b5b61169186828701611624565b93505060206116a28682870161126c565b92505060406116b38682870161126c565b9150509250925092565b7f4e6f742072656e746572000000000000000000000000000000000000000000005f82015250565b5f6116f1600a8361138c565b91506116fc826116bd565b602082019050919050565b5f6020820190508181035f83015261171e816116e5565b9050919050565b7f426f6f6b206973206e6f742072656e74656400000000000000000000000000005f82015250565b5f61175960128361138c565b915061176482611725565b602082019050919050565b5f6020820190508181035f8301526117868161174d565b9050919050565b7f4e487b71000000000000000000000000000000000000000000000000000000005f52601160045260245ffd5b5f6117c48261124d565b91506117cf8361124d565b92508282039050818111156117e7576117e661178d565b5b92915050565b7f4e487b71000000000000000000000000000000000000000000000000000000005f52601260045260245ffd5b5f6118248261124d565b915061182f8361124d565b92508261183f5761183e6117ed565b5b828204905092915050565b5f6118548261124d565b915061185f8361124d565b925082820261186d8161124d565b915082820484148315176118845761188361178d565b5b5092915050565b5f6118958261124d565b91506118a08361124d565b92508282019050808211156118b8576118b761178d565b5b92915050565b7f496e73756666696369656e7420636f6e74726163742062616c616e63650000005f82015250565b5f6118f2601d8361138c565b91506118fd826118be565b602082019050919050565b5f6020820190508181035f83015261191f816118e6565b9050919050565b7f526566756e64207472616e73666572206661696c6564000000000000000000005f82015250565b5f61195a60168361138c565b915061196582611926565b602082019050919050565b5f6020820190508181035f8301526119878161194e565b9050919050565b7f4e6f7420626f6f6b206f776e65720000000000000000000000000000000000005f82015250565b5f6119c2600e8361138c565b91506119cd8261198e565b602082019050919050565b5f6020820190508181035f8301526119ef816119b6565b9050919050565b7f426f6f6b2069732063757272656e746c792072656e74656420616e642063616e5f8201527f6e6f7420626520756e6c69737465640000000000000000000000000000000000602082015250565b5f611a50602f8361138c565b9150611a5b826119f6565b604082019050919050565b5f6020820190508181035f830152611a7d81611a44565b9050919050565b7f4e487b71000000000000000000000000000000000000000000000000000000005f52603260045260245ffd5b7f4e487b71000000000000000000000000000000000000000000000000000000005f52603160045260245ffd5b7f4e487b71000000000000000000000000000000000000000000000000000000005f52602260045260245ffd5b5f6002820490506001821680611b2257607f821691505b602082108103611b3557611b34611ade565b5b50919050565b5f819050815f5260205f209050919050565b5f8154611b5981611b0b565b611b63818661138c565b9450600182165f8114611b7d5760018114611b9357611bc5565b60ff198316865281151560200286019350611bc5565b611b9c85611b3b565b5f5b83811015611bbd57815481890152600182019150602081019050611b9e565b808801955050505b50505092915050565b5f6020820190508181035f830152611be68184611b4d565b905092915050565b5f611bf88261124d565b91505f8203611c0a57611c0961178d565b5b600182039050919050565b7f426f6f6b206973206e6f7420617661696c61626c6500000000000000000000005f82015250565b5f611c4960158361138c565b9150611c5482611c15565b602082019050919050565b5f6020820190508181035f830152611c7681611c3d565b9050919050565b7f496e73756666696369656e742045544820666f722072656e74696e67207468655f8201527f20626f6f6b000000000000000000000000000000000000000000000000000000602082015250565b5f611cd760258361138c565b9150611ce282611c7d565b604082019050919050565b5f6020820190508181035f830152611d0481611ccb565b9050919050565b7f436f6e74726163742062616c616e636520697320696e73756666696369656e745f82015250565b5f611d3f60208361138c565b9150611d4a82611d0b565b602082019050919050565b5f6020820190508181035f830152611d6c81611d33565b9050919050565b7f5469746c652063616e6e6f7420626520656d70747900000000000000000000005f82015250565b5f611da760158361138c565b9150611db282611d73565b602082019050919050565b5f6020820190508181035f830152611dd481611d9b565b9050919050565b7f5072696365206d7573742062652067726561746572207468616e2030000000005f82015250565b5f611e0f601c8361138c565b9150611e1a82611ddb565b602082019050919050565b5f6020820190508181035f830152611e3c81611e03565b9050919050565b7f4465706f736974206d7573742062652067726561746572207468616e203000005f82015250565b5f611e77601e8361138c565b9150611e8282611e43565b602082019050919050565b5f6020820190508181035f830152611ea481611e6b565b9050919050565b5f6020601f8301049050919050565b5f82821b905092915050565b5f60088302611ef57fffffffffffffffffffffffffffffffffffffffffffffffffffffffffffffffff82611eba565b611eff8683611eba565b95508019841693508086168417925050509392505050565b5f819050919050565b5f611f3a611f35611f308461124d565b611f17565b61124d565b9050919050565b5f819050919050565b611f5383611f20565b611f67611f5f82611f41565b848454611ec6565b825550505050565b5f90565b611f7b611f6f565b611f86818484611f4a565b505050565b5b81811015611fa957611f9e5f82611f73565b600181019050611f8c565b5050565b601f821115611fee57611fbf81611b3b565b611fc884611eab565b81016020851015611fd7578190505b611feb611fe385611eab565b830182611f8b565b50505b505050565b5f82821c905092915050565b5f61200e5f1984600802611ff3565b1980831691505092915050565b5f6120268383611fff565b9150826002028217905092915050565b61203f82611382565b67ffffffffffffffff8111156120585761205761152d565b5b6120628254611b0b565b61206d828285611fad565b5f60209050601f83116001811461209e575f841561208c578287015190505b612096858261201b565b8655506120fd565b601f1984166120ac86611b3b565b5f5b828110156120d3578489015182556001820191506020850194506020810190506120ae565b868310156120f057848901516120ec601f891682611fff565b8355505b6001600288020188555050505b505050505050565b5f6060820190508181035f83015261211d81866113d4565b905061212c602083018561140c565b612139604083018461140c565b949350505050565b5f61214b8261124d565b91507fffffffffffffffffffffffffffffffffffffffffffffffffffffffffffffffff820361217d5761217c61178d565b5b600182019050919050565b7f5265656e7472616e637947756172643a207265656e7472616e742063616c6c005f82015250565b5f6121bc601f8361138c565b91506121c782612188565b602082019050919050565b5f6020820190508181035f8301526121e9816121b0565b905091905056fea2646970667358221220abfb11187f4e8892cfc81be0d67c786c1e906c4093072f65cc5ffd1aaacf516964736f6c63430008140033",
  "immutableReferences": {},
  "source": "// SPDX-License-Identifier: MIT\r\npragma solidity ^0.8.20;\r\n\r\nimport \"@openzeppelin/contracts/security/ReentrancyGuard.sol\";\r\n\r\ncontract BookRental is ReentrancyGuard {\r\n    address public owner;\r\n    uint256 public itemCount;\r\n\r\n    constructor() {\r\n        owner = msg.sender;\r\n    }\r\n\r\n    struct Book {\r\n        string title;\r\n        uint256 dailyPrice;\r\n        uint256 deposit;\r\n        address owner;\r\n        bool isAvailable;\r\n    }\r\n\r\n    struct RentalInfo {\r\n        address renter;\r\n        uint256 rentedAt;\r\n    }\r\n\r\n    mapping(uint256 => Book) public books;\r\n    mapping(uint256 => RentalInfo) public rentals;\r\n\r\n    // Active books tracking\r\n    uint[] public activeBookIds;\r\n    mapping(uint => uint) public bookIdToActiveIndex;\r\n\r\n    event BookListed(uint256 indexed itemId, string title, uint256 price, uint256 deposit);\r\n    event BookRented(uint256 indexed itemId, address indexed renter);\r\n    event BookReturned(uint256 indexed itemId, uint256 refund);\r\n    event BookUnlisted(uint256 indexed itemId, string title);\r\n    event RefundIssued(uint256 indexed itemId, address renter, uint256 refundAmount);\r\n\r\n    modifier onlyBookOwner(uint256 _itemId) {\r\n        require(msg.sender == books[_itemId].owner, \"Not book owner\");\r\n        _;\r\n    }\r\n\r\n    modifier onlyRenter(uint256 _itemId) {\r\n        require(msg.sender == rentals[_itemId].renter, \"Not renter\");\r\n        _;\r\n    }\r\n\r\n    function listItem(string memory _title, uint256 _dailyPrice, uint256 _deposit) public {\r\n        require(bytes(_title).length > 0, \"Title cannot be empty\");\r\n        require(_dailyPrice > 0, \"Price must be greater than 0\");\r\n        require(_deposit > 0, \"Deposit must be greater than 0\");\r\n\r\n        books[itemCount] = Book({\r\n            title: _title,\r\n            dailyPrice: _dailyPrice,\r\n            deposit: _deposit,\r\n            owner: msg.sender,\r\n            isAvailable: true\r\n        });\r\n\r\n        // Add to activeBookIds and map its index\r\n        activeBookIds.push(itemCount);\r\n        bookIdToActiveIndex[itemCount] = activeBookIds.length - 1;\r\n\r\n        emit BookListed(itemCount, _title, _dailyPrice, _deposit);\r\n        itemCount++;\r\n    }\r\n\r\n    function rentItem(uint256 _itemId) public payable nonReentrant {\r\n        Book storage book = books[_itemId];\r\n        require(book.isAvailable, \"Book is not available\");\r\n\r\n        uint256 totalCost = book.deposit + book.dailyPrice;\r\n        require(msg.value >= totalCost, \"Insufficient ETH for renting the book\");\r\n        require(address(this).balance >= totalCost, \"Contract balance is insufficient\");\r\n\r\n        book.isAvailable = false;\r\n        rentals[_itemId] = RentalInfo({\r\n            renter: msg.sender,\r\n            rentedAt: block.timestamp\r\n        });\r\n\r\n        emit BookRented(_itemId, msg.sender);\r\n    }\r\n\r\n    function returnItem(uint256 _itemId) public nonReentrant onlyRenter(_itemId) {\r\n        Book storage book = books[_itemId];\r\n        RentalInfo storage rent = rentals[_itemId];\r\n\r\n        require(!book.isAvailable, \"Book is not rented\");\r\n\r\n        uint256 timePassed = block.timestamp - rent.rentedAt;\r\n        uint256 secondsElapsed = timePassed;\r\n\r\n        uint256 penalty = 0;\r\n        uint256 refund = 0;\r\n        uint256 rentalFee = book.dailyPrice;\r\n\r\n        if (secondsElapsed <= 60) {\r\n            refund = book.deposit;\r\n        } else if (secondsElapsed <= 5 * 60) {\r\n            penalty = (secondsElapsed / 60 - 1) * book.dailyPrice;\r\n            refund = book.deposit > penalty ? book.deposit - penalty : 0;\r\n        }\r\n\r\n        require(address(this).balance >= refund + rentalFee, \"Insufficient contract balance\");\r\n\r\n        payable(book.owner).transfer(rentalFee);\r\n\r\n        if (refund > 0) {\r\n            bool success = payable(rent.renter).send(refund);\r\n            require(success, \"Refund transfer failed\");\r\n            emit RefundIssued(_itemId, rent.renter, refund);\r\n        }\r\n\r\n        book.isAvailable = true;\r\n        delete rentals[_itemId];\r\n\r\n        emit BookReturned(_itemId, refund);\r\n    }\r\n\r\n    function unlistItem(uint256 _itemId) public onlyBookOwner(_itemId) {\r\n        Book storage book = books[_itemId];\r\n        require(book.isAvailable, \"Book is currently rented and cannot be unlisted\");\r\n\r\n        books[_itemId].isAvailable = false;\r\n\r\n        // Remove from activeBookIds\r\n        uint indexToRemove = bookIdToActiveIndex[_itemId];\r\n        uint lastId = activeBookIds[activeBookIds.length - 1];\r\n\r\n        activeBookIds[indexToRemove] = lastId;\r\n        bookIdToActiveIndex[lastId] = indexToRemove;\r\n\r\n        activeBookIds.pop();\r\n        delete bookIdToActiveIndex[_itemId];\r\n\r\n        emit BookUnlisted(_itemId, book.title);\r\n\r\n        delete books[_itemId];\r\n        itemCount--;\r\n    }\r\n\r\n    function getBookCount() public view returns (uint256) {\r\n        return itemCount;\r\n    }\r\n\r\n    function getBookDetails(uint256 _itemId) public view returns (string memory, uint256, uint256, address, bool) {\r\n        Book memory book = books[_itemId];\r\n        return (book.title, book.dailyPrice, book.deposit, book.owner, book.isAvailable);\r\n    }\r\n\r\n    function getActiveBookIds() public view returns (uint[] memory) {\r\n        return activeBookIds;\r\n    }\r\n}",
  "sourcePath": "C:\\Users\\bhava\\book-rental\\contracts\\BookRental.sol",
  "compiler": {
    "name": "solc",
    "version": "0.8.20+commit.a1b79de6.Emscripten.clang"
  },
  "schemaVersion": "3.4.16",
  "updatedAt": "2025-04-25T10:02:53.948Z",
  "networkType": "ethereum",
  "devdoc": {
    "kind": "dev",
    "methods": {},
    "version": 1
  },
  "userdoc": {
    "kind": "user",
    "methods": {},
    "version": 1
  }
}